{
  "contractName": "Adoption",
  "abi": [
    {
      "constant": true,
      "inputs": [
        {
          "name": "",
          "type": "uint256"
        }
      ],
      "name": "certificationIdList",
      "outputs": [
        {
          "name": "",
          "type": "uint256"
        }
      ],
      "payable": false,
      "stateMutability": "view",
      "type": "function",
      "signature": "0x07c64dc4"
    },
    {
      "constant": true,
      "inputs": [
        {
          "name": "",
          "type": "uint256"
        }
      ],
      "name": "aircraftFeatureList",
      "outputs": [
        {
          "name": "",
          "type": "uint256"
        }
      ],
      "payable": false,
      "stateMutability": "view",
      "type": "function",
      "signature": "0xc5c37729"
    },
    {
      "constant": false,
      "inputs": [
        {
          "name": "_featureId",
          "type": "uint256"
        },
        {
          "name": "_modelId",
          "type": "uint256"
        },
        {
          "name": "_featureDescription",
          "type": "string"
        }
      ],
      "name": "addAircraftFeature",
      "outputs": [
        {
          "name": "",
          "type": "uint256"
        },
        {
          "name": "",
          "type": "uint256"
        }
      ],
      "payable": false,
      "stateMutability": "nonpayable",
      "type": "function",
      "signature": "0x8b129e48"
    },
    {
      "constant": true,
      "inputs": [],
      "name": "getAircraftFeatureCount",
      "outputs": [
        {
          "name": "",
          "type": "uint256"
        }
      ],
      "payable": false,
      "stateMutability": "view",
      "type": "function",
      "signature": "0xb978888b"
    },
    {
      "constant": true,
      "inputs": [
        {
          "name": "_index",
          "type": "uint256"
        }
      ],
      "name": "getAircraftFeatureIdByIndex",
      "outputs": [
        {
          "name": "",
          "type": "uint256"
        }
      ],
      "payable": false,
      "stateMutability": "view",
      "type": "function",
      "signature": "0xbc41cf0d"
    },
    {
      "constant": true,
      "inputs": [
        {
          "name": "_featureId",
          "type": "uint256"
        }
      ],
      "name": "getAircraftFeatureById",
      "outputs": [
        {
          "name": "",
          "type": "uint256"
        },
        {
          "name": "",
          "type": "string"
        }
      ],
      "payable": false,
      "stateMutability": "view",
      "type": "function",
      "signature": "0xd71864a6"
    },
    {
      "constant": false,
      "inputs": [
        {
          "name": "_programId",
          "type": "uint256"
        },
        {
          "name": "_featureId",
          "type": "uint256"
        },
        {
          "name": "_featureDescription",
          "type": "string"
        }
      ],
      "name": "addTrainingProgram",
      "outputs": [
        {
          "name": "",
          "type": "uint256"
        },
        {
          "name": "",
          "type": "uint256"
        }
      ],
      "payable": false,
      "stateMutability": "nonpayable",
      "type": "function",
      "signature": "0x9b59512d"
    },
    {
      "constant": false,
      "inputs": [
        {
          "name": "_certificationId",
          "type": "uint256"
        },
        {
          "name": "_pilotId",
          "type": "uint256"
        },
        {
          "name": "_featureId",
          "type": "uint256"
        },
        {
          "name": "_date",
          "type": "string"
        }
      ],
      "name": "approveCertification",
      "outputs": [
        {
          "name": "",
          "type": "uint256"
        },
        {
          "name": "",
          "type": "uint256"
        }
      ],
      "payable": false,
      "stateMutability": "nonpayable",
      "type": "function",
      "signature": "0x61462ab4"
    },
    {
      "constant": true,
      "inputs": [
        {
          "name": "_pilotId",
          "type": "uint256"
        },
        {
          "name": "_featureId",
          "type": "uint256"
        }
      ],
      "name": "checkCertification",
      "outputs": [
        {
          "name": "",
          "type": "bool"
        }
      ],
      "payable": false,
      "stateMutability": "view",
      "type": "function",
      "signature": "0x0e65989a"
    }
  ],
  "bytecode": "0x608060405234801561001057600080fd5b506109e3806100206000396000f3fe608060405260043610610099576000357c0100000000000000000000000000000000000000000000000000000000900463ffffffff16806307c64dc41461009e5780630e65989a146100ed57806361462ab41461014a5780638b129e481461024b5780639b59512d14610342578063b978888b14610439578063bc41cf0d14610464578063c5c37729146104b3578063d71864a614610502575b600080fd5b3480156100aa57600080fd5b506100d7600480360360208110156100c157600080fd5b81019080803590602001909291905050506105bd565b6040518082815260200191505060405180910390f35b3480156100f957600080fd5b506101306004803603604081101561011057600080fd5b8101908080359060200190929190803590602001909291905050506105e0565b604051808215151515815260200191505060405180910390f35b34801561015657600080fd5b5061022e6004803603608081101561016d57600080fd5b81019080803590602001909291908035906020019092919080359060200190929190803590602001906401000000008111156101a857600080fd5b8201836020820111156101ba57600080fd5b803590602001918460018302840111640100000000831117156101dc57600080fd5b91908080601f016020809104026020016040519081016040528093929190818152602001838380828437600081840152601f19601f820116905080830192505050505050509192919290505050610668565b604051808381526020018281526020019250505060405180910390f35b34801561025757600080fd5b506103256004803603606081101561026e57600080fd5b8101908080359060200190929190803590602001909291908035906020019064010000000081111561029f57600080fd5b8201836020820111156102b157600080fd5b803590602001918460018302840111640100000000831117156102d357600080fd5b91908080601f016020809104026020016040519081016040528093929190818152602001838380828437600081840152601f19601f8201169050808301925050505050505091929192905050506106ff565b604051808381526020018281526020019250505060405180910390f35b34801561034e57600080fd5b5061041c6004803603606081101561036557600080fd5b8101908080359060200190929190803590602001909291908035906020019064010000000081111561039657600080fd5b8201836020820111156103a857600080fd5b803590602001918460018302840111640100000000831117156103ca57600080fd5b91908080601f016020809104026020016040519081016040528093929190818152602001838380828437600081840152601f19601f82011690508083019250505050505050919291929050505061078a565b604051808381526020018281526020019250505060405180910390f35b34801561044557600080fd5b5061044e6107eb565b6040518082815260200191505060405180910390f35b34801561047057600080fd5b5061049d6004803603602081101561048757600080fd5b81019080803590602001909291905050506107f8565b6040518082815260200191505060405180910390f35b3480156104bf57600080fd5b506104ec600480360360208110156104d657600080fd5b810190808035906020019092919050505061081b565b6040518082815260200191505060405180910390f35b34801561050e57600080fd5b5061053b6004803603602081101561052557600080fd5b810190808035906020019092919050505061083e565b6040518083815260200180602001828103825283818151815260200191508051906020019080838360005b83811015610581578082015181840152602081019050610566565b50505050905090810190601f1680156105ae5780820380516001836020036101000a031916815260200191505b50935050505060405180910390f35b6004818154811015156105cc57fe5b906000526020600020016000915090505481565b6000806000905060008090505b60048054905081101561065d5760006003600060048481548110151561060f57fe5b9060005260206000200154815260200190815260200160002090508581600001541480156106405750848160010154145b1561064f57600192505061065d565b5080806001019150506105ed565b508091505092915050565b60008060006003600088815260200190815260200160002090506004879080600181540180825580915050906001820390600052602060002001600090919290919091505550858160000181905550848160010181905550838160020190805190602001906106d8929190610912565b50866003600089815260200190815260200160002060000154925092505094509492505050565b60008060008060008781526020019081526020016000209050600186908060018154018082558091505090600182039060005260206000200160009091929091909150555084816000018190555083816001019080519060200190610765929190610912565b5085600080888152602001908152602001600020600001549250925050935093915050565b6000806000600260008781526020019081526020016000209050848160000181905550838160010190805190602001906107c5929190610912565b508560026000888152602001908152602001600020600001549250925050935093915050565b6000600180549050905090565b600060018281548110151561080957fe5b90600052602060002001549050919050565b60018181548110151561082a57fe5b906000526020600020016000915090505481565b6000606060008084815260200190815260200160002060000154600080858152602001908152602001600020600101808054600181600116156101000203166002900480601f0160208091040260200160405190810160405280929190818152602001828054600181600116156101000203166002900480156109025780601f106108d757610100808354040283529160200191610902565b820191906000526020600020905b8154815290600101906020018083116108e557829003601f168201915b5050505050905091509150915091565b828054600181600116156101000203166002900490600052602060002090601f016020900481019282601f1061095357805160ff1916838001178555610981565b82800160010185558215610981579182015b82811115610980578251825591602001919060010190610965565b5b50905061098e9190610992565b5090565b6109b491905b808211156109b0576000816000905550600101610998565b5090565b9056fea165627a7a72305820f9777079b2110975c9a797d9a109333435dc2a07c34a0b960b8cd42301282f050029",
  "source": "pragma solidity ^0.5.0;\r\n\r\ncontract Adoption {\r\n\r\n    // address[16] public adopters;\r\n\r\n    // function adopt(uint petId) public returns (uint) {\r\n    //     require(petId >= 0 && petId <= 15);\r\n\r\n    //     adopters[petId] = msg.sender;\r\n\r\n    //     return petId;\r\n    // }\r\n\r\n    // function getAdopters() public view returns (address[16] memory) {\r\n    //     return adopters;\r\n    // }\r\n\r\n    // ===============================================================\r\n\r\n    // Aircraft\r\n\r\n    struct AircraftFeature {\r\n        uint modelId;\r\n        string featureDescription;\r\n    }\r\n\r\n    mapping (uint => AircraftFeature) aircraftFeatures;\r\n    uint[] public aircraftFeatureList;\r\n\r\n    function addAircraftFeature(uint _featureId, uint _modelId, string memory _featureDescription) public returns (uint, uint) {\r\n        AircraftFeature storage aircraftFeature = aircraftFeatures[_featureId];\r\n\r\n        aircraftFeatureList.push(_featureId);\r\n\r\n        aircraftFeature.modelId = _modelId;\r\n        aircraftFeature.featureDescription = _featureDescription;\r\n\r\n        return (_featureId, aircraftFeatures[_featureId].modelId);\r\n    }\r\n\r\n    function getAircraftFeatureCount() public view returns (uint) {\r\n        return aircraftFeatureList.length;\r\n    }\r\n\r\n    function getAircraftFeatureIdByIndex(uint _index) public view returns (uint) {\r\n        return aircraftFeatureList[_index];\r\n    }\r\n\r\n    function getAircraftFeatureById(uint _featureId) public view returns (uint, string memory) {\r\n        return (aircraftFeatures[_featureId].modelId, aircraftFeatures[_featureId].featureDescription);\r\n    }\r\n\r\n    // Training \r\n\r\n    struct TrainingProgram {\r\n        uint featureId;\r\n        string featureDescription;\r\n    }\r\n\r\n    mapping (uint => TrainingProgram) trainingPrograms;\r\n\r\n    function addTrainingProgram(uint _programId, uint _featureId, string memory _featureDescription) public returns (uint, uint) {\r\n        TrainingProgram storage trainingProgram = trainingPrograms[_programId];\r\n\r\n        trainingProgram.featureId = _featureId;\r\n        trainingProgram.featureDescription = _featureDescription;\r\n\r\n        return (_programId, trainingPrograms[_programId].featureId);\r\n    } \r\n\r\n    // Approve Certification\r\n\r\n    struct Certification {\r\n        uint pilotId;\r\n        uint featureId;\r\n        string date;\r\n    }\r\n\r\n    mapping (uint => Certification) certifications;\r\n    uint[] public certificationIdList;\r\n\r\n    function approveCertification(uint _certificationId, uint _pilotId, uint _featureId, string memory _date) public returns (uint, uint) {\r\n        Certification storage certification = certifications[_certificationId];\r\n\r\n        certificationIdList.push(_certificationId);\r\n\r\n        certification.pilotId = _pilotId;\r\n        certification.featureId = _featureId;\r\n        certification.date = _date;\r\n\r\n        return (_certificationId, certifications[_certificationId].pilotId);\r\n    }\r\n\r\n    // Check Certification\r\n\r\n    function checkCertification(uint _pilotId, uint _featureId) public view returns (bool) {\r\n        bool pilotFound = false;\r\n\r\n        for (uint i = 0; i < certificationIdList.length; i++) {\r\n            Certification storage certification = certifications[certificationIdList[i]];\r\n            if (certification.pilotId == _pilotId && certification.featureId == _featureId) {\r\n                pilotFound = true;\r\n                break;\r\n            }\r\n        }\r\n\r\n        return pilotFound;\r\n    }\r\n\r\n}",
  "sourcePath": "C:/Users/Soham Ashodiya/Documents/MyProjects/airchain/contracts/Adoption.sol",
  "compiler": {
    "name": "solc",
    "version": "0.5.0+commit.1d4f565a.Emscripten.clang"
  },
  "schemaVersion": "3.0.6",
  "updatedAt": "2019-03-31T00:06:54.436Z",
  "devdoc": {
    "methods": {}
  },
  "userdoc": {
    "methods": {}
  }
}